:020000040800F2
:1000000000000824B1020008674B00089737000879
:10001000654B0008E90600081B57000800000000B7
:100020000000000000000000000000009D4F0008DC
:100030000908000800000000694B00089F4F0008F5
:10004000CB020008CB020008CB020008CB0200085C
:10005000CB020008CB020008CB020008CB0200084C
:10006000CB020008CB020008CB020008CB0200083C
:10007000CB020008CB020008CB020008CB0200082C
:10008000CB020008CB020008CB020008CB0200081C
:10009000CB020008CB020008CB020008CB0200080C
:1000A000CB020008CB020008CB020008CB020008FC
:1000B000CB020008CB020008CB020008CB020008EC
:1000C000CB020008CB020008CB020008CB020008DC
:1000D000CB020008CB020008CB020008CB020008CC
:1000E000CB020008CB02000800000000CB02000891
:1000F000CB020008CB020008CB020008CB020008AC
:10010000CB020008CB020008CB020008CB0200089B
:10011000CB020008CB020008CB020008CB0200088B
:10012000CB020008CB020008CB020008CB0200087B
:10013000CB020008CB020008CB020008CB0200086B
:1001400000000000000000000000000000000000AF
:10015000CB020008CB020008CB020008CB0200084B
:10016000CB020008CB020008CB020008CB0200083B
:10017000CB020008CB020008CB020008CB0200082B
:10018000CB020008CB020008CB020008CB0200081B
:10019000CB020008CB020008CB020008CB0200080B
:1001A0000D440008CB020008CB020008CB02000877
:1001B000CB020008CB020008CB020008CB020008EB
:1001C000CB020008CB020008CB020008CB020008DB
:1001D000CB020008CB020008CB020008CB020008CB
:1001E000CB020008CB020008CB020008CB020008BB
:1001F000CB020008CB020008CB020008CB020008AB
:10020000CB020008CB020008CB020008CB0200089A
:10021000CB020008CB020008CB020008CB0200088A
:10022000CB020008F93A0008694600080000000007
:10023000CB020008CB02000800000000CB0200083F
:10024000CB020008CB020008CB020008CB0200085A
:10025000CB020008CB020008CB020008CB0200084A
:10026000CB020008CB020008CB020008CB0200083A
:10027000CB020008CB020008CB02000800000000FF
:10028000CB020008CB020008CB02000800000000EF
:1002900000000000CB020008DFF810D000F08EF85C
:1002A00000480047C9580008AFF300800000082448
:1002B0000648804706480047FEE7FEE7FEE7FEE700
:1002C000FEE7FEE7FEE7FEE7FEE7FEE75D5000081B
:1002D000990200082DE9F05F0546002092469B46F2
:1002E00088460646814640241BE02846414647464C
:1002F000224600F053F853465A46C01A914110D393
:1003000011461846224600F03AF82D1A67EB01080C
:100310004F4622460120002100F031F817EB00097A
:100320004E41201EA4F10104DFDC484631462A4636
:100330004346BDE8F09F40EA01039B0703D009E074
:1003400008C9121F08C0042AFAD203E011F8013BC1
:1003500000F8013B521EF9D27047D2B201E000F81A
:10036000012B491EFBD270470022F6E710B5134659
:100370000A4604461946FFF7F0FF204610BD202A22
:1003800004DB203A00FA02F1002070479140C2F1EC
:10039000200320FA03F3194390407047202A04DB1E
:1003A000203A21FA02F00021704721FA02F3D040EE
:1003B000C2F120029140084319467047064C074D90
:1003C00006E0E06840F0010394E807009847103425
:1003D000AC42F6D3FFF764FFA85C0008D85C0008C5
:1003E00030B595B00446382107A8FFF7BDFF1821A6
:1003F00001A8FFF7B9FF012000210206050205232D
:100400000793CDE90D51CDE90F120C9104AD129176
:100410008022139183051491CDE90110039201AA62
:1004200085E80B00044807A9234601F033FB0028A8
:1004300000D0012015B030BDB802002030B595B015
:100440000446382107A8FFF78FFF182101A8FFF7FE
:100450008BFF0021022035230793C501C205CDE99A
:100460000D510DF1080CCDE90F1201230C91402222
:10047000129113914505149101908CE80D00CDE97E
:100480000515054801AA07A9234601F003FB00282A
:1004900000D0012015B030BDB8020020F0B591B0F9
:1004A0000024684638210F94FFF75EFF4FF4406642
:1004B000601EB5000395EC230093A9000422CDE94A
:1004C000014008A88B02CDE9044280E81A0001250A
:1004D0000B940C944FF4807706480EAACDE90D4595
:1004E000CDE90676694601F0C5FB002800D0012061
:1004F00011B0F0BDB802002010B590B038216846A8
:10050000FFF732FF00F086F810B1022010B010BDE6
:100510000FA800F04BF800F0ABF8E8BB00208DF816
:1005200038004FF480740694112100912204079042
:1005300001230590CDE90A30CDE9080241F2883463
:100540000C900D9022461848694601F0F9FA18BB44
:1005500015480EA9224601F0A5FCE8B91420FFF7C2
:100560003FFFC8B900F084F8B0B902208DF8380018
:1005700031210D4822460091694601F0E1FA58B94F
:1005800009480EA9224601F08DFC28B91420FFF776
:1005900027FF08B9142000E003E0FFF74FFF002811
:1005A000B4D00120B2E70000B802002030B58FB00F
:1005B000044638216846FFF7D7FE00214FF48070CB
:1005C0009F250095020441F28835CDE90601059189
:1005D0000323CDE908120E482A460B910C910A9389
:1005E0000D91694601F0ACFA28B909480EA92A46CE
:1005F00001F0F8FB10B101200FB030BD9DF83A10AA
:10060000BDF8380061F31F4020600020F4E70000CF
:10061000B802002010B58EB038216846FFF7A4FE5E
:10062000002008904FF4807141F2883466220092D5
:10063000CDE9061009902246059069460B900C9072
:100640000D900A4801F07CFA60B9992000900748A3
:100650002246694601F074FA20B92046FFF7C0FE31
:10066000002800D001200EB010BD0000B80200200C
:10067000F0B595B0382106A8FFF776FE1821684638
:10068000FFF772FE002441F288354FF480700E941B
:1006900006210691CDE90C04124806A92A460F94BA
:1006A0000B9411941294139401F04AFAB0B90220F9
:1006B000009001214305102205260696CDE902216E
:1006C000CDE90443C7050190CDE90F71054806A99E
:1006D0002B466A4601F0DEF9002800D0012015B053
:1006E000F0BD0000B8020020FEE70000F0B50F4C9E
:1006F000DFF83CE0DDE9055CDDE9077640EA0E0065
:1007000063F31F454FF480332360E160E263C4F874
:1007100010C02764E06166636564206840F00100F2
:1007200020602068C007FCD1F0BD0000001000521E
:10073000000001FF2DE9F04F0AAC4FF00206DDF892
:10074000348094E8800ADDF824A0B8F1010F07F0A6
:100750000F054FF00004C5F1100C06D0B8F1000FE2
:100760002BD0B8F1020F30D002E02C0000D064464C
:10077000184DC3EB031302EB4313154A03EB43037A
:10078000194405EB0A6343EA864349EA0745C7F57E
:10079000F0764FF4803717601664C2F834B0D36136
:1007A00014615564D163D060106840F0010010609E
:1007B0001068C007FCD1BDE8F08F17F007044FF0B8
:1007C0000006D5D0C4F10804D2E70126CDE7000029
:1007D000001000520B00010070B50A4C61F31F427B
:1007E0004FF44031DDE904562160A663E0632364E1
:1007F00065636264206840F0010020602068C007E3
:10080000FCD170BD00100052704772B6FEE7F0B523
:10081000D1E90843CD690A68C2B10268254322F4D0
:10082000F84213431D430560D1E90125D1E90336A0
:100830004C692A434568334389691A43EB0B2243C9
:10084000DB030A431A4342600020F0BDD1E9012EC8
:10085000D1E9036CD1E9057142EA0E0246EA0C06C1
:1008600032433A430A4301682A4322431A436FF34F
:100870000E010A430260E7E7426943F6FE739A43BA
:1008800042EA410141610020704770B591E81C00C7
:10089000C9686FF01F0506691A4305EB441444EA62
:1008A00041210A4306EA45431A430261002070BD14
:1008B0002DE9F04F8B8A6FF00F05264C4FF07F4BE0
:1008C000D1F80C9004EB03536FF0FF044FEA042AB5
:1008D0001AB386684FEA09321F4FA2F580521A43B5
:1008E0003E4032438260D1E900278E68521E05EBFC
:1008F00007150F8A2A43C56804EB06240E7E0AEB0F
:10090000074322431A430BEB06610A4305F0704389
:100910001A43C2600020BDE8F08F91E804110F4E29
:10092000521E0F8A05EB08152A4304EB0C2C06EB2C
:1009300009350E7E42EA0C022A4385680AEB074419
:1009400022431A430BEB06610A4305F070431A4336
:100950008260DFE70000F0FFFF0F0FFF00F0FFFFF6
:10096000F0B590F86020012A22D0C1EBC102012726
:1009700080F86070022380F8613000EB8202284D1D
:10098000138F168EB2F83CC0D46A1B05283244EA95
:10099000064643EA4C530A2C46EA03060AD0092CC1
:1009A00008D0137B46EA036349B10B2C1AD01DE033
:1009B0000220F0BDD36803F07F433343F4E70168BE
:1009C0004C6AAC431C434C62016813688B615168EC
:1009D0000A2901D009291BD1D168026821F07F4181
:1009E000916215E0118B0F4D43EA81430168CC6998
:1009F000AC431C43CC61016813680B6151680A2940
:100A000001D0092904D1D168026821F07F41116227
:100A1000002180F8617080F860100846F0BD000089
:100A20000F0033FF0F003FFF2DE9F041040004D019
:100A300094F86100002518B107E00120BDE8F081BD
:100A4000204684F8605000F033F8184E022084F8F5
:100A500061000123D4E90010D4F81CC040F2071251
:100A60000F6840EA0C003740384308602068A769E7
:100A7000A168466B39439643314341632068E2687D
:100A8000016C6FF30F01114301642068218AA28A6F
:100A9000466B090541EA425126F440121143416375
:100AA000656684F861300020C8E70000BFFFF8FFEA
:100AB00008B500680649884208D10648016841F037
:100AC00010010160006800F01000009008BD0000F7
:100AD00000100052D4440258F0B5B5B01421684655
:100AE000FFF742FC3148016800295CD10121016017
:100AF000BC2105A8FFF738FC4FF08070059000245A
:100B0000169405A801F080FB08B1FFF77EFE284887
:100B1000016841F4805101600068022502AA69461B
:100B200000F4805034904FF68370CDE90005032621
:100B300020480C2782E8D00000F048F802AA48F2CA
:100B40003710CDE900051C48694682E8D00000F066
:100B50003DF802AA4CF20370CDE90005174869463A
:100B600082E8D00000F032F802AA4FF63F00CDE94B
:100B700000051348694682E8D00000F027F82420D9
:100B8000694602AACDE900050E4882E8D00000F0CF
:100B90001DF80420694602AACDE900050A4882E84A
:100BA000D00000F013F835B0F0BD000000000020C8
:100BB000D44402580010025800180258000C025881
:100BC00000140258001C0258000802582DE9F84F82
:100BD00003247D4D00234FF001094FF0B04B4FF03F
:100BE0000F0AE9E009FA03F73A4076D00E7906F0E9
:100BF0000306012E01D0022E18D1D0F808C04FEA0A
:100C0000430ECE6804FA0EF82CEA080C06FA0EF62B
:100C100046EA0C068660D0F804C00E792CEA070C70
:100C2000C6F300169E4046EA0C0646600E79F6436F
:100C3000B6070BD0C6684FEA43088F6804FA08FC71
:100C400026EA0C0607FA08F73743C7600E7906F064
:100C50000306022E12D1DE080F694FEA437C00EB37
:100C60008606B646366A4FEADC6C0AFA0CF807FAD2
:100C70000CF726EA08063743CEF820700F7906688D
:100C80004FEA430807F0030704FA08FC07FA08F7DD
:100C900026EA0C06374307604E6816F4403F1CD026
:100CA0004A4E376847F00207376036689F0706F0FC
:100CB0000206009623F0030606F1B046B6463F0F43
:100CC000D6F80864DFF808810AFA07FC404526EAEE
:100CD0000C0603D14FF0000C41E06CE0DFF8F4C0EB
:100CE000604502D14FF0010C39E0DFF8ECC06045FF
:100CF00002D14FF0020C32E0DFF8E0C0604502D1D3
:100D00004FF0030C2BE0DFF8D8C0604502D14FF064
:100D1000040C24E0DFF8CCC0604502D14FF0050C94
:100D20001DE0DFF8C4C0604502D14FF0060C16E0AC
:100D3000DFF8B8C0604502D14FF0070C0FE0DFF8D4
:100D4000B0C0604502D14FF0080C08E0DFF8A4C045
:100D5000604502D14FF0090C01E04FF00A0C0CFA8B
:100D600007FC4CEA060CCEF808C44F68DBF80060BC
:100D7000FF0226EA020600D516435F46CBF8006064
:100D8000D1F804C0DBF804605FEA8C2C26EA020686
:100D900000D516437E606E684F6826EA0206BF03E0
:100DA00000D516436E602E684F6826EA0206FF03E0
:100DB00000D516432E605B1C0A6832FA03F67FF4F6
:100DC00011AFBDE8F88F000080000058F4440258CD
:100DD000000002580004025800080258000C025893
:100DE000001002580014025800180258001C025843
:100DF00000200258002402580AB18161704709049A
:100E0000FBE7000001480068000C70470010005C20
:100E100001488068704700001C000020024881687B
:100E200002781144816070471C000020032010B537
:100E300000F0F4FD01F0C6FF0F4A10491468136872
:100E4000C4F3032203F00F038A5CC95C02F01F02A3
:100E500001F01F01D0400A4A20FA01F1116009494E
:100E600008600F2000F010F808B1012010BD00F05C
:100E700099FD002010BD000018440258985C00083D
:100E80002C0000202800002070B50D4D0446287865
:100E9000A0B14FF47A71B1FBF0F00A490968B1FBD7
:100EA000F0F002F023FB48B9102C07D200222146B3
:100EB000501E00F093FD00206C6070BD012070BDDD
:100EC0001C00002028000020826281617047C262FD
:100ED000C1617047034B5968114459604FF4004297
:100EE000FFF7F5BF080000200149012008607047A6
:100EF000080000202DE9F0410400069812D089B1C5
:100F000083B194F84C50012D09D094F84D7001260E
:100F1000002584F84C60012F06D084F84C50022044
:100F2000BDE8F0810120FBE7042684F84D60666D82
:100F3000C4E90613C4E90A2026F00F016165606D5B
:100F400040F00E00606525626562204602F0DAFD21
:100F5000204602F071FD0028E2D0062084F84D0002
:100F600084F84C50DEE77047704700000B4B30B4FC
:100F70001A690A441A61DC68A24209D29D68A21A61
:100F80004FF40044A2422944996002D3224600E073
:100F90000022996830BCFFF797BF000008000020CE
:100FA0002DE9F04F70B169B102680025536803F074
:100FB0000303022B09D053689B0708D05268D24321
:100FC000920706D00120BDE8F08F102202E00D60EC
:100FD00001E030220A6002685268120C8A600268DE
:100FE000D268120CCA600A68102A01D0302A18D1BF
:100FF0000268146953699669C4F30312C3F30314B6
:10100000012AC6F3031301D104B933B142EA04063D
:101010001E4306D0032A02D003E0022229E004B9CD
:1010200033B34D6000220368144650334FEA03097E
:10103000D3F800A00023194E41F2883BDF002AFAC2
:1010400007F5EDB2012D16D004EB030CC76B4FF082
:10105000640816F80CC015FB08F517F80C70B5FB02
:10106000F7F5642D09D8C5F1C80502EB550207E074
:1010700001224A60D6E7643202E0BBFBF5F52A4460
:101080005B1C042BDAD3241D09F104033D2C994683
:10109000CED390090861002095E70000B05B0008FE
:1010A00090F84D10032901D004290DD1416DC1F3F1
:1010B0008101022906D0416DC1F38101032903D1C9
:1010C00002F0D4BB02F010BE7047704770B5040048
:1010D00004D094F84D00002510B106E0012070BD49
:1010E000204684F84C5000F03FF8022084F84D0070
:1010F0002068016B41F0010101632068016821F063
:10110000010101602068016B21F07E01016320680C
:10111000016B41F4005101632068016B41F480418F
:1011200001632068816B41F0600181630D48E063D9
:101130004030C4E910052046A56402F069FF4FF075
:10114000010108B12165C9E72068426842F4807254
:1011500042602562656284F84D1025656565002052
:1011600070BD0000F05B00082DE9F84F3B490646D2
:101170000068884270D13A48016841F0200101605E
:1011800000680025374C1123374A00F020000090FA
:101190004FF4A04A2027204622600222C4E90135EC
:1011A000E5608023C4E90452C4F82CA04FF4003C4D
:1011B000A5614FF00079C4E90753C4E90CC5A563E4
:1011C000C4E9099700F072FB08B1FFF71EFB00228B
:1011D0002448114600F082FA08B1FFF716FBDFF849
:1011E00084801321204A082308F16C0834634046A8
:1011F00026644032C8F800204FF42034C0E90115BD
:10120000C8F80C50C8F81050C0E90553C0E907757C
:10121000C8F82CA0C0E90C45C8E90997C8F83850AF
:1012200000F044FB08B1FFF7F0FA0E480022114627
:101230006C3000F053FA08B1FFF7E7FA0022C6F865
:10124000348079201146C8F8406000F0C7FBBDE843
:10125000F84F792000F0B4BBBDE8F88F00300052A1
:10126000D44402583801002040000052426DC2F3BD
:1012700081030022032B05D0436DC3F38103022BAE
:101280000DD01FE0CA0703D0426D42F48052426580
:10129000890717D5416D41F40051416512E0CB0734
:1012A00004D0436D062243F480534365890705D576
:1012B000416D42F0280241F4005141650068016B24
:1012C00091430163002070472DE9F041044690F8F6
:1012D000A00016460F4601281DD0012584F8A05015
:1012E000022084F8A10006EB860000EBC600342241
:1012F00004EB80003830FFF71EF8324639462046AE
:1013000003F0CAF8216800204D6284F8A15084F8E7
:10131000A000BDE8F0810220FBE770472DE9F04115
:101320000446006800274FF00408856B466B690788
:1013300015D5710713D5426B22F004024263206871
:10134000C0F83C80D4F8A40040F00100C4F8A40028
:1013500084F8A180204684F8A070FFF7DEFFA8077C
:1013600016D5B00714D520680222436B23F0020380
:1013700043632068C263D4F8A40040F00200C4F8BC
:10138000A40084F8A180204684F8A070FFF7C5FF70
:1013900005EA06004FF00108C0070ED021684A6B2D
:1013A00022F001024A632168C1F83C8084F8A180E0
:1013B000204684F8A07000F091F8280710D5300777
:1013C0000ED520680822436B23F00803436320688E
:1013D000C26384F8A180204684F8A07000F06AF906
:1013E000BDE8F0812DE9F041040004D094F8A1009B
:1013F000002518B107E00120BDE8F081204684F8FF
:10140000A05000F06DF83448022184F8A1100122A8
:1014100002CC8B6923F070438B6194E84A00194336
:10142000E3681E4354F8043D31439E69314399619A
:1014300021688B6803408B602168A68AA7698B6846
:101440003B4343EA06438B602168CB680340CB6093
:101450002168A38B276ACE683E4346EA0346CE60E6
:1014600021680B6903400B612368A68CA76A196980
:10147000394341EA0641196121684B6903404B61D8
:101480002068A38D266B4169314341EA03414161E4
:10149000236894F8351094F83600DE6A000406F0EC
:1014A0007F46DE62236840EA012094F83460D96AFE
:1014B00031430143D9622068416B41F00601416329
:1014C0002068816941F001018161C4F8A45084F869
:1014D000A120002090E7000000F800F07047000015
:1014E0002DE9F041B6B0044614216846FEF73CFFF2
:1014F000BC2105A8FEF738FF6449206888427DD1E9
:101500000EAB022400251E20490405917F2283E8AA
:1015100015006602CDE913651595CDE9114005A8C2
:1015200000F072FE08B1FFF770F95948016841F008
:1015300008010160006800F0080034905448001F62
:10154000016841F040010160016801F040013491FF
:10155000016841F010010160016801F0100134914F
:10156000016841F480710160016801F48071349177
:10157000016841F008010160016801F0080134913F
:10158000016841F080010160016801F0800134913F
:10159000016841F001010160016801F0010134912D
:1015A000016841F004010160016801F00401349117
:1015B000016841F02001016000680E27DFF8D48047
:1015C000694600F0200034904FF433508DE831002C
:1015D000CDE903474046FFF7F9FA702069468DE8E8
:1015E00031002D48CDE90347FFF7F0FA09214FF408
:1015F00080508DE83100CDE9034100E043E06946C9
:101600004046FFF7E3FA40F2E16069468DE83100B9
:101610002248CDE90347FFF7D9FA082069468DE84B
:1016200031001F48CDE90347FFF7D0FA4EF20870AA
:1016300069468DE831001B48CDE90347FFF7C6FA3C
:10164000F80169468DE831001748CDE90347FFF7F7
:10165000BDFA802069468DE831001448CDE9034782
:10166000FFF7B4FA00966946CDE901451048CDE987
:101670000347FFF7ABFA00225820114600F0AEF9FD
:10168000582000F09DF936B0BDE8F0810010005000
:10169000E444025800180258001002580020025872
:1016A000000C0258001C02580000025800080258A2
:1016B00000140258704728B190F83D10022903D059
:1016C0008021816601207047042180F83D10006868
:1016D000C16821F00101C1600020704730B54FF0B2
:1016E000000358B190F83C40012C09D090F83D50CF
:1016F000012480F83C40012D04D015E0012030BDCC
:10170000022030BD046825696D000DD421630029D5
:1017100001684A6301680A6903D042F000420A6125
:1017200003E022F00042FAE70123002180F83C1098
:10173000184630BD2DE9F8435B4B00264FF0A4421C
:1017400004460096012500681F6812684FF4165C75
:10175000B7FBFCF700F5F863C3F3841305FA03F154
:101760000A427DD00168C9072AD0C168890727D5F8
:10177000C16821F00201C160216888680206A26E7A
:1017800002D442F0010201E042F00202A2668205A8
:1017900003D5A26E42F00402A266C20503D5A26E72
:1017A00042F00802A266420503D5A26E42F0100282
:1017B000A266000503D5A06E40F02000A0664D6033
:1017C00020680168C90608D5C168890605D51021B9
:1017D0004160A16C09B1204688472068016809076B
:1017E00008D5C168C90605D508214160E16C09B179
:1017F0002046884720684FF004080168490708D54B
:10180000C168090705D5C0F80480216D09B12046DB
:10181000884720680168890715D5C168490712D52E
:10182000C16821F03E01C16094F83D00042828D031
:1018300021680220486084F83C6084F83D50616C67
:1018400009B120468847A06E00282AD084F83D8040
:101850002068C16821F00101C1602068009900E0A2
:101860001FE0491C0091B94202D8C168C907F5D1EF
:1018700084F83C60C068C00709D0032084F83D00AC
:1018800007E0A16D84F83C6084F83D5002E084F8E4
:101890003D50616D002904D001B02046BDE8F04301
:1018A0000847BDE8F88300002800002070B5044612
:1018B000FFF7AEFA06465CB1002584F83C500220E2
:1018C00084F83D002068C16821F00101C1600CE08E
:1018D000012070BDFFF79CFA801B052805D9402127
:1018E000A166032084F83D00F2E72068C068C007C5
:1018F000F0D1204602F0C6FEE5650120256665664A
:10190000A56684F83D00002070BDF8B50400069D72
:101910000FD094F83C00012809D094F83D700126BE
:10192000002084F83C60012F05D084F83C000220A0
:10193000F8BD0120F8BD022684F83D60A06620684D
:10194000C66826F00106C6602046009502F0F2FE49
:101950002068C16841F00601C160E06C20B12068D8
:10196000C16841F01001C160206D20B12068C168DC
:1019700041F00801C160A06C20B12068C16841F04D
:101980002001C1602068C16841F00101C160606848
:10199000B0F1804F04D12068C16841F48031C1604A
:1019A0000020F8BD054808B5016841F0020101605A
:1019B000006800F00200009008BD0000F4440258E6
:1019C000002809DB410900F01F028900012001F114
:1019D000E0219040C1F80001704700000E4BF0B4C8
:1019E0001B680D46C3F30223C3F10706042E00D97A
:1019F0000426191D072901D2002300E0DB1E012463
:101A000004FA06F19C40491E2940641E9940144086
:101A10002143F0BC03F01ABF0CED00E0064900F0D2
:101A2000070210B54FF6FF040868044B204040EA57
:101A300002201843086010BD0CED00E00000FA051C
:101A4000134970B50A68D243520705D5096801F0F9
:101A50000701814213D118E00A6822F0070202430D
:101A60000A60FFF7D5F90A4D4FF47A760446083D2F
:101A700007E000BFFFF7CCF9001BB04201D90120FD
:101A800070BD2868C0438004F4D4002070BD0000FD
:101A90000C4802582DE9F84F1E4615468A46044662
:101AA000FFF7B6F9814694F8400001280ED00127CF
:101AB0004FF0000884F8407094F84100012807D0E6
:101AC0005FF0020084F84080BDE8F88F0220FBE759
:101AD0004221C4F8448084F84110002220214B4662
:101AE0002046009603F015F90028EBD121682868FC
:101AF00088622168686848622168A868C8622068AE
:101B00002969026822F4400242F480021143016014
:101B1000E9684FF000622046CAF82810514603F0E9
:101B200024F801224B4608212046009603F0F1F8E4
:101B30000028C7D122680821D16084F84170C1E72C
:101B40002DE9F84F17468B460446FFF761F98246A8
:101B500094F8400001280ED001264FF0000884F8C8
:101B6000406094F84100012807D0022584F84080A5
:101B70002846BDE8F88F0220FBE74FF00209C4F8C1
:101B8000448084F84190002220215346204600974B
:101B900003F0BFF80500E9D100225946204602F0C3
:101BA000E4FFDBF8240058B9012253460221204605
:101BB000009703F0AEF80500D8D12168C1F80C9069
:101BC00084F84160D2E70000F8B50446FFF720F939
:101BD00005461CB194F8410010B107E00120F8BDA2
:101BE000204600F08DF841F28830A06420686FF044
:101BF000FF02A168036802EB012223F47061114324
:101C00000160A06C002220212B460090204603F0AA
:101C100080F80028E3D12268D4E907352679E16805
:101C2000176845EA0665DFF844C01943104B29439D
:101C30000025012607EA0C07394311602268D4E920
:101C40000517B4F810C0D2F804E039430EEA030EC9
:101C50004EEA0C431943516021680A6842F00102C0
:101C60000A60656484F84160F8BD00002FFFFF0042
:101C7000FEF8E0FF2DE9F843164688460446FFF7D4
:101C8000C7F8034694F8400001280ED0012084F8DC
:101C90004000002794F84100012808D05FF00205B9
:101CA00084F840702846BDE8F8830220FBE7A06C6A
:101CB0008221676484F84110002220210090204690
:101CC00003F027F80500EBD120687268016821F065
:101CD000080111430160706808280AD122681021A8
:101CE000306810632068C1602068016841F4801189
:101CF00001604FF040624146204602F036FFCFE7D8
:101D00002DE9F047B6B0044614212FA8FEF72CFBAE
:101D1000BC216846FEF728FB2E492068884256D130
:101D20004FF00070009000246846129400F06CFAA6
:101D300008B1FEF76AFD2848016841F4804101605E
:101D4000006800F48040349023480C30016841F072
:101D500002010160016801F002013491016841F063
:101D6000200101600068022531AADFF870A000F0B0
:101D7000200034904020CDE92F05032650460A2745
:101D800082E8D0002FA9FEF721FFC020DFF8509095
:101D900031AA4FF00908CDE92F052FA9484682E85E
:101DA0005001FEF713FF300231AACDE92F052FA90C
:101DB000484682E8D000FEF709FF0421504631AAC8
:101DC000CDE92F152FA982E85001FEF7FFFE36B0AE
:101DD000BDE8F08700500052D44402580004025875
:101DE000001402582DE9F84F15460E460446FFF739
:101DF0000FF882462068816994F8403000F120098C
:101E0000012B0DD001274FF0000884F8407094F8A2
:101E10004120012A06D0022084F84080BDE8F88FD6
:101E20000220FBE7C4F84480A6B3222284F84120B4
:101E30000269521CA2630269521C626326634269F2
:101E400022F0406242F080624261206881610EE0CF
:101E50000621204602F05DFFC8B999F80000216B09
:101E60000870206B401C2063A06B401EA063A06B19
:101E700053464FF0010200950028E9D14FF00201CE
:101E8000204602F046FF10B922680221D16084F892
:101E90004170C1E7FFE7616C012041F00801616416
:101EA000BAE700002DE9F84F15460E460446FEF746
:101EB000AFFF94F8401082462068012900F1200904
:101EC0000ED001274FF0000884F8407094F84110BC
:101ED000012907D05FF0020084F84080BDE8F88F48
:101EE0000220FBE7C4F8448086B3122184F8411035
:101EF0000169491CE1620169491CA162666241698C
:101F000021F0406141610EE00421204602F001FF12
:101F1000C8B9606A017889F80010606A401C606284
:101F2000E06A401EE062E06A53464FF0010200950D
:101F30000028E9D14FF00201204602F0EAFE10B974
:101F400022680221D16084F84170C5E7FFE7616C27
:101F5000012041F008016164BEE7000010B500F007
:101F6000EBFE05490968054AC1F30211515C01F015
:101F70001F01C84010BD000020440258985C0008B2
:101F8000494930B5484C0B1D0A68143409681D686E
:101F9000246802F00303C5F30012C1F30531C4F352
:101FA000CC04002914FB02F200EE102AF8EE400ADD
:101FB00075D03F4A9FED3D1AB7EE000A6BB1DFEDD9
:101FC0003D1A012B01D0022B64D002EE101A1168C9
:101FD000F8EE422A81EEA22A21E0334C283C236805
:101FE0009B0612D5344B246801EE901A1168C4F395
:101FF000C104F8EE612AE34001EE903AC1F3080112
:10200000F8EE611A81EEA22A0BE001EE901ADFEDE4
:102010002B2A00BFF8EE611A116882EEA12AC1F3E3
:10202000080101EE901A1168F8EE611A40EE811A6B
:1020300071EE800A62EE200AC1F3462101EE101A09
:10204000B8EE411A31EE001AC0EE811ABCEEE11A68
:1020500080ED001A1168C1F3064101EE101AB8EEC6
:10206000411A31EE001AC0EE811ABCEEE11A80ED81
:10207000011A1168C1F3066101EE101AB8EE411A97
:1020800031EE000A80EE801ABCEEC10A80ED020A31
:1020900030BD04E001EE901ADFED092ABAE7002115
:1020A000016041608160F3E7284402580000003974
:1020B000384402580024744A0090D0030024744C21
:1020C00020BCBE4B494930B5484C0B1D0A681C3436
:1020D00009681D68246802F00303C5F30022C1F3F8
:1020E0000551C4F3CC04002914FB02F200EE102ABF
:1020F000F8EE400A75D03F4A9FED3D1AB7EE000A50
:102100006BB1DFED3D1A012B01D0022B64D002EE42
:10211000101A1168F8EE422A81EEA22A21E0334C0F
:10212000283C23689B0612D5344B246801EE901A94
:102130001168C4F3C104F8EE612AE34001EE903A5D
:10214000C1F30801F8EE611A81EEA22A0BE001EE5C
:10215000901ADFED2B2A00BFF8EE611A116882EEAB
:10216000A12AC1F3080101EE901A1168F8EE611A74
:1021700040EE811A71EE800A62EE200AC1F3462118
:1021800001EE101AB8EE411A31EE001AC0EE811AB3
:10219000BCEEE11A80ED001A1168C1F3064101EEB0
:1021A000101AB8EE411A31EE001AC0EE811ABCEED8
:1021B000E11A80ED011A1168C1F3066101EE101AEF
:1021C000B8EE411A31EE000A80EE801ABCEEC10A68
:1021D00080ED020A30BD04E001EE901ADFED092A1D
:1021E000BAE70021016041608160F3E728440258AA
:1021F00000000039404402580024744A0090D00383
:102200000024744C20BCBE4B2DE9FC5F044650F802
:10221000241B002500902E460801FE4FDFF8F883AE
:102220001DD5606E50B1B0F5801F0CD0B0F5001F09
:102230000ED0B0F5401F1DD001250FE0386840F4E6
:102240000030386016E00221201D02F087FD03E017
:102250000098022102F012FE05000BD02E462088C5
:10226000C00523D5606D05281ED2DFE800F00C11F3
:10227000161B1B00626ED8F8001021F440111143A8
:10228000C8F80010EBE7386840F40030386009E027
:102290000021201D02F062FD03E00098002102F001
:1022A000EDFD05466DB100E001252E462088800534
:1022B00028D5A06D80281ED00CDC90B140280ED10E
:1022C00014E0626DD8F8001021F007011143C8F83E
:1022D0000010EBE7C02813D0B0F5807F10D00125A7
:1022E0000FE0386840F40030386009E00021201D1C
:1022F00002F034FD03E00098002102F0BFFD054626
:1023000095B12E462088DFF81093400509F10809A1
:102310002CD5D4F8A400B0F5800F20D00DDCA0B1EE
:10232000B0F5001F0FD115E0A26DD8F8001021F410
:10233000E0711143C8F80010E4E7B0F5C00F13D006
:10234000B0F5000F10D001250FE0386840F40030E0
:10235000386009E00021201D02F000FD03E0009834
:10236000002102F08BFD054675B12E462088000540
:102370002DD5D4F8A800B0F1007F21D00EDCA8B193
:10238000B0F1807F10D116E0D4F8A420D9F8001065
:1023900021F460011143C9F80010E7E7B0F1407F74
:1023A00013D0B0F1806F10D001250FE0386840F4F1
:1023B0000030386009E00021201D02F0CFFC03E06E
:1023C0000098002102F05AFD05466DB12E462068A6
:1023D00080011FD5A06CD8B110280FD0202812D0B2
:1023E000302815D0012514E0D4F8A820D9F8001021
:1023F00021F0E0611143C9F80010E8E7386840F4C3
:102400000030386004E00221201D02F0A7FC0546E0
:102410006DB12E462088C0042BD5E06DB0F5005F6D
:1024200020D00DDCA0B1B0F5805F0FD115E07A4867
:10243000A26C001F016821F0300111430160E9E73F
:10244000B0F5405F13D0B0F5804F10D001250FE0FC
:10245000386840F40030386009E00021201D02F0A7
:102460007DFC03E00098002102F008FD054685B1DF
:102470002E462088800429D5206EB0F5403F23D019
:1024800010DC08B3B0F5803F14D0B0F5003F0FD199
:1024900015E0E26DD8F8001021F4E0411143C8F8CE
:1024A0000010E6E7B0F5802F0ED0B0F5A02F0BD0CE
:1024B00001250AE00121201D02F050FC03E00098F4
:1024C000012102F0DBFC05468DB12E462088400438
:1024D0002AD5D4F8AC00B0F1405F23D010DC08B3AB
:1024E000B0F1805F14D0B0F1005F0FD115E0226E23
:1024F000D8F8001021F4E0211143C8F80010E5E7F6
:10250000B0F1804F0ED0B0F1A04F0BD001250AE002
:102510000121201D02F022FC03E00098012102F0BD
:10252000ADFC05466DB12E46208800041FD5E06E37
:10253000D8B1B0F1805F0ED0B0F1005F10D00125AE
:1025400014E0D4F8AC20D9F8001021F0E041114398
:10255000C9F80010E8E7386840F40030386004E05B
:102560000121201D02F0FAFB05466DB12E462068C0
:10257000C0011ED5606CD0B101280ED0022811D048
:10258000032814D0012513E0E26ED8F8001021F0E2
:1025900040511143C8F80010E9E7386840F40030B2
:1025A000386004E00221201D02F0D8FB054685B109
:1025B0002E462068DFF85CB04002ABF11C0B57D50B
:1025C0001648016841F480710160FEF721FC8246E3
:1025D0000EE01148626C001F016821F003011143F5
:1025E0000160E6E7FEF714FCA0EB0A0064283DD882
:1025F0000A480068C005F5D57DBBDFF81CA0B4F81B
:10260000B0200AF1200ADAF8001002F4407001F458
:10261000407105E02C4402585044025800480258CA
:10262000814211D0DAF80010DAF8002021F440716C
:1026300042F48032CAF80020DAF8002022F4803216
:10264000CAF80020CAF80010D4F8B000B0F5807FB6
:1026500021D1FEF7DDFB019019E008E0FEF7D8FB81
:102660000199411A41F28830814210D903252E4642
:102670002078DFF844A4C0073DD0A06F182838D0D8
:1026800026DC80B3082829D0102825D12CE0DAF8E0
:1026900000008007E2D5D4F8B010C1F30120032870
:1026A00058460DD0016821F47C510160B4F8B02087
:1026B000DAF80010C2F30B021143CAF80010D7E792
:1026C000FE4A036802EA111223F47C511143ECE73D
:1026D00020280ED028280CD001250BE00121201D38
:1026E00002F03CFB04E004E00098012102F0C6FB8C
:1026F00005465DB12E46207880071ED5606F0628FE
:1027000019D2DFE800F0160C11161616A26FDAF8CF
:10271000001021F038011143CAF80010EBE7012145
:10272000201D02F01BFB03E00098012102F0A6FB34
:10273000054675B100E001252E46207840071FD5DB
:10274000D4F89000062819D2DFE800F0160C111614
:102750001616626FDAF8001021F007011143CAF86B
:102760000010EAE70121201D02F0F8FA03E00098CA
:10277000012102F083FB05469DB100E001252E46B4
:10278000207880062BD5D4F88C00B0F1405F24D09F
:1027900011DC10B3B0F1805F15D0B0F1005F10D143
:1027A00016E0D4F89020D9F8001021F00701114369
:1027B000C9F80010E4E7B0F1804F0ED0B0F1A04F9F
:1027C0000BD001250AE00021201D02F0C7FA03E02A
:1027D0000098022102F052FB05468DB12E4620786A
:1027E00040062BD5D4F89800B0F5406F24D011DC0A
:1027F00010B3B0F5806F15D0B0F5006F10D116E0B2
:10280000D4F88C20DAF8001021F0E0411143CAF826
:102810000010E4E7B0F5805F0ED0B0F5A05F0BD0FC
:1028200001250AE00021201D02F098FA03E000983B
:10283000022102F023FB05468DB12E4620780006CA
:102840002BD5D4F89C00B0F5C04F24D011DC10B3C8
:10285000B0F5005F15D0B0F5804F10D116E0D4F878
:102860009820D9F8001021F4E0511143C9F8001064
:10287000E4E7B0F5004F0ED0B0F5204F0BD00125A6
:102880000AE00021201D02F069FA03E0009802210D
:1028900002F0F4FA05464DB12E46207800071ED509
:1028A000D4F88000B0F5805F0AD00FE0D4F89C2007
:1028B000D9F8001021F460411143C9F80010ECE789
:1028C0000098022102F0DAFA00B10126D4F8802043
:1028D000DAF8001021F440511143CAF800102078B2
:1028E000C00613D5D4F89400B0F5807F05D10098C8
:1028F000022102F0C3FA00B10126D4F89420D9F8DD
:10290000001021F440711143C9F800102068000341
:1029100016D5D4F8A00038B1B0F5803F09D0B0F595
:10292000003F0BD001250AE00021201D02F016FA1D
:1029300003E00098022102F0A1FA054685B12E4677
:102940002068400322D5D4F88400B0F5801F11D050
:10295000B0F5001F13D0B0F5401F15D0012514E0CD
:10296000D4F8A020D9F8001021F440311143C9F85F
:102970000010E5E7386840F40030386004E0009863
:10298000012102F07BFA054655B12E462068C003AE
:102990001CD5E06C70B1B0F5803F10D0012514E07B
:1029A000D4F88420DAF8001021F440111143CAF859
:1029B0000010EBE7386840F40030386004E0022192
:1029C000201D02F0CBF90546CDB12E4620688000CF
:1029D00005D50098022102F051FA00B101262068C5
:1029E00080031BD5E06FB8B1B0F5807F10D0B0F593
:1029F000007F11D0B0F5407F0ED001250DE02E48AC
:102A0000E26C0838016821F4803111430160DDE790
:102A1000386840F400303860F5B32E462068C002B4
:102A200007D5226FD8F8001021F000411143C8F8F3
:102A300000102068C00008D5D4F8B420DBF80010DE
:102A400021F480411143CBF800102068800207D5A3
:102A5000A26ED8F8001021F080711143C8F8001060
:102A6000206840000CD5DBF8001021F40041CBF8C1
:102A70000010DBF80010D4F8B8201143CBF8001098
:102A80002068002807DA0C48226D0838016821F018
:102A900040511143016000E014E02068000208D5B5
:102AA000D4F88820DAF8001021F440011143CAF864
:102AB000001086B1012003E054440258CFFFFF000C
:102AC000BDE8FC9FE26FDAF8001021F44071114379
:102AD000CAF80010A2E70020EDE700002DE9F05F42
:102AE00004000F467ED0DFF83882D8F8000000F0EE
:102AF0000F00B8420CD2D8F8001021F00F01394372
:102B0000C8F80010D8F8000000F00F00B84269D1F2
:102B10002078844D40070AD52069296801F07001AA
:102B2000884204D9296821F0700101432960207886
:102B30007C4E361D00070AD56069316801F07001CE
:102B4000884204D9316821F0700101433160207856
:102B5000C0060AD5A069316801F4E061884204D951
:102B6000316821F4E061014331602078DFF8B4B1CD
:102B700080060BF1080B0CD5E1695846DBF8002004
:102B800002F07002914204D9026822F070020A43F6
:102B90000260207880070AD5E068296801F00F01FB
:102BA000884204D9296821F00F0101432960207867
:102BB000C0073ED05B49A2682868183920F47060CD
:102BC000104328606068022818D0032819D00968CB
:102BD000012819D0490700294ADADFF848A1AAF1EB
:102BE000080A00E044E0DAF8002022F0070202437D
:102BF000CAF80020FEF70CF9814612E00968890343
:102C0000E9E709688901E6E7C905E4E7FEF700F9A5
:102C1000A0EB090141F28830814202D90320BDE8CE
:102C2000F09F6168DAF8000000F03800B0EBC10FE7
:102C3000ECD1207880070AD5E068296801F00F01FF
:102C4000884204D2296821F00F0101432960D8F895
:102C50000010404601F00F01B9420BD9016821F084
:102C60000F0139430160006800F00F00B84201D045
:102C70000120D4E7207840070AD52069296801F0AF
:102C80007001884204D2296821F070010143296053
:102C9000207800070AD56069316801F07001884228
:102CA00004D2316821F07001014331602078C00600
:102CB0000AD5A069316801F4E061884204D2316824
:102CC00021F4E06101433160207880060CD5E16990
:102CD0005846DBF8002002F07002914204D20268EC
:102CE00022F070020A43026000F06CF80E492A6874
:102CF0002B68C2F3032203F00F038A5CC95C02F065
:102D00001F0201F01F01D040084A20FA01F11160B2
:102D10000749086007480068BDE8F05FFEF7B4B8EF
:102D20000020005218440258985C00082C00002033
:102D3000280000202000002030B500F043F80B4AA6
:102D40000B490C4B15681468C5F3032204F00F04FB
:102D50008A5C095D02F01F0201F01F01D040064AA3
:102D600020FA01F119601060084630BD184402587D
:102D7000985C00082C0000202800002000B5FFF718
:102D8000DBFF05490968054AC1F30211515C01F0F6
:102D90001F01C84000BD00001C440258985C000898
:102DA00000B5FFF7C9FF05490968054AC1F30221CB
:102DB000515C01F01F01C84000BD00001C440258D6
:102DC000985C0008454970B545480968434B103B7D
:102DD00011F0380208D00111082A03D0102A0BD0B4
:102DE000182A0BD0084670BD19688906FBD51968EA
:102DF000C1F3C101C84070BD3A4870BD3749374D75
:102E000018310C1D24350A68096826682D6802F0FF
:102E1000030406F00102C1F30511C5F3CC0515FB4F
:102E200002F200EE102AB8EE400AE9B32F4ADFEDB5
:102E30002E0AB7EE001A6CB1DFED2D1A012C01D06D
:102E4000022C43D002EE101A1068F8EE422A81EEEE
:102E5000A22A1EE01C68A40611D51B6801EE901A78
:102E60001168C3F3C103F8EE612AD84001EE900A5D
:102E7000C1F30800F8EE611A81EEA22A0BE001EE20
:102E8000901ADFED1C2A00BFF8EE611A106882EE7E
:102E9000A12AC0F3080001EE900AF8EE611A40EE94
:102EA000201A31EE810A00E015E022EE000A1068D7
:102EB000C0F34620401C00EE900AF8EE600A80EE57
:102EC000201ABCEEC10A10EE100A70BD01EE901A75
:102ED000DFED092AD8E7002070BD00001044025839
:102EE0000090D00340787D01000000393044025842
:102EF0000024744A0024744C20BCBE4B2DE9F05FC2
:102F000004007DD0FF4F2078FE4D1837DFF8F49392
:102F1000103DC00748D0D9F80000396800F03800EB
:102F2000102815D0182803D101F0030002280FD073
:102F30006068B0F5803F12D010B1B0F5A02F18D066
:102F4000286820F480302860286820F4802009E078
:102F50002868800328D560680028D2D024E028683B
:102F600040F480302860606888B1FDF751FF064664
:102F700009E0286840F480202860F0E7FDF748FF6A
:102F8000801B64286FD828688003F7D50CE0FDF714
:102F90003FFF064605E000BFFDF73AFF801B6428AF
:102FA000F0D828688003F7D4207841F20308D54E82
:102FB0000C3E800769D5D9F80000396810F0380058
:102FC0000ED0182801D188070AD0E06890B329688C
:102FD00021F0190101432960FDF71AFF824631E013
:102FE0002868400702D5E06800288AD0E168286890
:102FF00020F0190008432860FDF70AFF824607E029
:10300000DFE000BFFDF704FFA0EB0A000228B9D8FB
:1030100028684007F6D500BFFDF7F4FE40451BD8F1
:103020002069402812D0316821F47C3141EA003017
:1030300030602AE018E000BFFDF7EAFEA0EB0A00CE
:1030400002289FD828684007F6D5E5E7306820F4C5
:103050007C3040F40030EBE7207C316821F0FE4109
:1030600041EA0060E4E70DE1286820F001002860F3
:10307000FDF7CEFE824605E0FDF7CAFEA0EB0A0092
:1030800002288DD828684007F6D42078C0065DD580
:10309000D9F80000DFF86CB2396800F03800ABF105
:1030A000040B082810D0182803D101F003000128D0
:1030B0000AD0E0690028286838D040F080002860F5
:1030C000FDF7A6FE824623E02868C00523D5E06907
:1030D000802876D11FE0206A202821D0316821F095
:1030E000F84141EA8060306030E000BF94F8201081
:1030F000DBF8002022F07C5242EA0161CBF800109C
:1031000024E000BFFDF784FEA0EB0A00022898D857
:103110002868C005F6D5FDF775FE4045E6D8DAE724
:10312000306820F0F84040F08040DCE720F080007C
:103130002860FDF76DFE064605E000BFFDF768FE5E
:10314000801B02289DD82868C005F7D42078000786
:1031500029D56C486169643000298046016811D026
:1031600041F001010160FDF753FE064605E000BF96
:10317000FDF74EFE801B0228C9D8D8F80000800752
:10318000F6D510E021F001010160FDF741FE064691
:1031900005E000BFFDF73CFE801B022872D8D8F87E
:1031A00000008007F6D42078800623D5A069002887
:1031B000286810D040F480502860FDF729FE0646AC
:1031C00005E02CE1FDF724FE801B02285AD8286870
:1031D0008004F7D50EE020F480502860FDF718FE3B
:1031E000064604E0FDF714FE801B02284AD8286832
:1031F0008004F7D4207840074FD5DFF80C81D8F849
:10320000001041F48071C8F80010FDF701FE064679
:1032100005E000BFFDF7FCFD801B642832D8D8F81C
:103220000000C005F6D5374EA068603601280AD0E8
:1032300008B1052813D0306820F0010030603068F4
:1032400020F0040002E0306840F001003060A06827
:1032500041F2883A90B1FDF7DBFD80460AE0306824
:1032600040F004003060EEE7FDF7D2FDA0EB08016E
:10327000514507D830688007F6D50EE0FDF7C8FD48
:10328000804607E084E000BFFDF7C2FDA0EB080127
:1032900051457DD830688007F6D4606AB0B3DFF856
:1032A0006480D9F8001008F12008C1F3C201032995
:1032B0006FD00228286820F08070286003D0FDF7C6
:1032C000A7FD044680E0FDF7A3FD064605E000BF2C
:1032D000FDF79EFD801B022873D828688001F7D473
:1032E000E26A40F2F331386854F8283F884340EAF4
:1032F000021018433860217B4FF4FE0C22894FF0F6
:10330000FE4704E0104402580048025889E0208A31
:103310004902521E267DA1F5007189B2401EC2F3FA
:1033200008021143761E0CEA004001433E4807EABA
:10333000066211433C4AC8F800100832016821F0C7
:103340000101016011684FF6F876236AB14341EA42
:10335000C30111600168A26921F00C0111430160F1
:103360000168E26921F0020111430160016841F442
:1033700080310160016841F400310160016841F46D
:1033800080210160016841F001010160286801E0CD
:1033900017E01DE040F080702860FDF739FD04461D
:1033A00005E000BFFDF734FD001B022809D828689E
:1033B0008001F7D535E000BFFDF72AFD001B02288C
:1033C00002D90320BDE8F09F28688001F4D428E0EA
:1033D00039680128D8F8000021D0A26A01F003035F
:1033E00093421CD1E26AC1F305118A4217D1216BC5
:1033F000C0F30802491E8A4211D1616BC0F3462214
:10340000491E91420BD1A16BC0F30642491E914265
:1034100005D1E16BC0F30660491E814201D0012055
:10342000D0E70020CEE700002C44025870B504001D
:103430000D4603D094F82C0010B107E0012070BDB8
:10344000002084F82D00204600F018F8022084F8AF
:103450002C002068211DFDF7DAF9D4E90002294685
:10346000FDF726FA04480121026842F0004202609A
:1034700084F82C10002070BD00400052FDF72CBBDA
:1034800010B5044690F82C00022804D094F82C00C3
:10349000012801D0012010BD022084F82C002068F2
:1034A000FDF7EAF9012084F82C00002010BD00008F
:1034B00070B5044690F82C000D46022804D001286F
:1034C00003D0052801D0012070BD022084F82C0013
:1034D0002068FDF7DAF92868022805D05FF00100BE
:1034E00084F82C00002070BD0520F9E7401EB0F1E3
:1034F000807F10B501D3012010BD4FF0E024606142
:103500000F21601702F0A2F90020A06107212161BC
:1035100010BD30B590F88010012918D0012280F834
:1035200080202421C0F884100022202450F8641B3D
:103530000B680D6823F0005325F001050D60026053
:1035400050F8641C0B6004620277104630BD022004
:1035500030BD70B5044690F8800001281DD00122CE
:1035600084F880202420C4F884002068056802685C
:1035700022F0010202602068826822F060620A4341
:103580008260204601F0D8FD2268202100201560CD
:10359000C4F8841084F8800070BD022070BD70B53E
:1035A000044690F8800001281DD0012284F8802074
:1035B0002420C4F8840020680568026822F0010213
:1035C00002602068826822F060420A4382602046DE
:1035D00001F0B2FD2268202100201560C4F884109B
:1035E00084F8800070BD022070BD10B5040003D0C7
:1035F000D4F8840010B107E0012010BD002084F849
:103600008000204600F026F82420C4F884002068BA
:10361000016821F001010160204601F043FE01280C
:10362000EBD0A06A10B1204601F0A8FD20684168E7
:1036300021F4904141602068816821F02A01816075
:103640002068016841F0010101602046BDE810409A
:1036500001F0F8BD10B5B6B0044614212FA8FCF750
:1036600083FEBC216846FCF77FFE1849206888422B
:1036700029D103201D90022468460094FEF7C4FD62
:1036800008B1FDF7C2F81248016841F40021016059
:10369000006800F4002034900D480838016841F0BB
:1036A00004010160006808224FF4406100F004004A
:1036B000349000202F91CDE932022FA9CDE930407E
:1036C0000448FDF783FA36B010BD0000004C0040FE
:1036D000E8440258000802582DE9F8430446D0F89F
:1036E00084001F4616460D46202852D1DDB1D6B1C2
:1036F00094F8800001284CD0012084F88000212219
:103700004FF00008C4F88C80C4F884201834FDF70A
:103710007FFB814654F8100CA687E687183CB0F56D
:10372000805F03D004E00120BDE8F883206920B168
:103730002E46002584F8808010E00026FAE78021DC
:10374000204601F085FFB8B9C6B116F8010B216813
:103750008862B4F85600401EA4F85600B4F856002B
:103760004B464FF0000200970028E8D14FF040018F
:10377000204601F06DFF38B10320D5E735F8020B84
:103780002168C0F30800E3E72020C4F8840000208B
:10379000CAE70220C8E7FEE730B5ADF20C5D0C4683
:1037A0000DF5A16305460DF204416A4600F02CF8C0
:1037B000002811D1002221E0A818007C78B1F0285F
:1037C0000FD0010900F00F0001EB810100EB410077
:1037D000401EA22806D301200DF20C5D30BDA020B2
:1037E00000E0A1205DF8221004EB8003C3F8A410D0
:1037F0000DF20441895C491E521C2154DDF8080574
:103800008242D9D30020E7E7F0B500254FF4807C51
:103810002C46065DAF1967451FD8671CFFB21EB165
:103820004F556D1C761EFAE7641C102CF1D3002452
:103830004C551D600125204623460C7811E000BF41
:1038400042F82300401C5B1CCE5CA642F8D01F2C23
:1038500003D805FA04F6864201D80120F0BD4000E5
:10386000641CCE5C002EEFD10020F0BD10B50446E4
:10387000406D00F00300022817D12068406B40061D
:1038800013D5211D2046FDF78BFB00206061211D13
:103890002046FDF71AFC2068016B21F0400101630E
:1038A0002068816B41F0400181632068416B89068B
:1038B00026D5616D41F400416165016821F0010187
:1038C00001602068016B21F07E0101632068816B3B
:1038D00041F060018163206B90F83D10022901D115
:1038E000FDF7E9FE606B90F83D10022904D02046F8
:1038F000BDE8104000F005B8BDE81040FDF7DBBEA4
:1039000010BD70B50446406B00250168E06A496946
:10391000C1F31001411A6162616A814205D1626A94
:103920002046E169FDF7D6FA65622068406BC00663
:1039300021D4606A28B1626A2046E169FDF7CAFABB
:10394000656201212068026822F001020260606D58
:10395000626D00F0030002F48242626584F84C500C
:1039600084F84D100228204602D0FDF7FCFA70BD05
:10397000FDF7BAFA70BD606D8004FBD42046BDE847
:103980007040AFF300802DE9F04100260446102579
:10399000606D800425D42068416BC90621D5406C38
:1039A000626AE169030A070C4FEA106C8854616A85
:1039B000E06908444370616AE06908448770616A9D
:1039C000E069084480F803C0606A001D6062606AB4
:1039D000E16A884205D1626A2046E169FDF77AFA18
:1039E00066626D1ED4D1616D2068426BD20601D52E
:1039F00089041CD4016821F001010160606A28B1CA
:103A0000626A2046E169FDF765FA6662606D626D83
:103A1000012100F0030084F84C60022802F4824285
:103A2000626584F84D10204603D0FDF79CFABDE88E
:103A3000F081FDF759FAFAE7F8B50446836AD4E94C
:103A40000C20816A906A834202D3E36A8B4201D2DE
:103A50000120F8BD1A4B5364236B1A4A5A65656BF3
:103A6000194B6B64636B5A65636B184A9A6508B3AC
:103A700001B3D4E90A230125B2FBF0F6B3FBF1F759
:103A800000FB162001FB1731101A5B1AC4E90A0368
:103A900000952168E269606B4431FDF736FF48B953
:103AA00000952268A36AA1694032206BFDF72DFFC3
:103AB0000028CED0206D40F004002065C8E700004B
:103AC000D13B0008A53B0008733C0008653C00089A
:103AD000F8B5084C00264FF4004504F10807636070
:103AE00087E8460026602A460095FDF703FA002085
:103AF000F8BD0000080000200148FDF7D1BA000021
:103B0000E0000020426D016822F440524265426D9F
:103B100002F00302022A4A6830D022F008024A600A
:103B200001680A6822F001020A6001680A6B22F04B
:103B30007E020A6301680A6B42F400520A6301685C
:103B40000A6B42F480420A6301688A6B42F06002A9
:103B50008A6301680A6842F001020A60416DC1F39C
:103B6000810102290DD0416DC1F38101032904D1E6
:103B70000068016B41F060010163704742F0080288
:103B8000CDE70068016B41F06E01F5E70021425C72
:103B9000FF2A03D142185278D92A01D0491CF6E7EE
:103BA000881C704710B5006C012201680B6823F077
:103BB00001030B6001680B6B23F07E030B6380F83D
:103BC0004D20016D41F004010165FDF7CDF910BDF7
:103BD000F8B5046C48F20C0221680B6B23F07E03ED
:103BE0000B63616D11400C2935D10168226BA06A0D
:103BF0004969956AC1F31001401A2062216A204682
:103C0000FDF7B4F9A06A06260121A84206D3CDB17A
:103C1000B0FBF5F205FB1202801A05E028B182071D
:103C200003D080088000001DA062606DC00413D422
:103C3000A36A8BB100912268A169206B4032FDF725
:103C400064FE48B1206D40F00400206584F84D60AA
:103C50002046FDF789F9F8BD2068016B41F060014D
:103C60000163F8BD006C416D090401D5FFF749BE41
:103C7000704738B5046C48F20C0221680B6B23F0D6
:103C80007E030B63616D11400C2926D12168496BBD
:103C9000890623D40168E06A4969C1F31001401A1A
:103CA0006062626A2046E169FDF714F9606D800484
:103CB00014D4012000902168E36AE2694431606B0A
:103CC000FDF723FE50B1216D062041F0040121656E
:103CD00084F84D002046FDF747F938BD2068016B98
:103CE00041F06001016338BD70B50446406D0025A8
:103CF00000F00300022816D12068406B400612D560
:103D0000211D2046FDF74CF9211D20466561FDF778
:103D1000DCF92068016B21F0400101632068816BB0
:103D200041F040018163606DC0040CD42068416B98
:103D3000890701D5082103E0406B400703D5012125
:103D4000204600F049F8606D80040CD42068416B77
:103D5000090701D5082103E0406BC00603D5012106
:103D6000204600F0A9FA2068416BC1F3C201042982
:103D700001D0002070BD016821F001010160606D7B
:103D8000C0F38100022804D12068016B21F07E017C
:103D900001632068816B41F060018163606A28B132
:103DA000626A2046E169FDF795F86562606D626DB3
:103DB000012100F0030084F84C50022802F48242F2
:103DC000626584F84D10204603D0FDF7CCF8012041
:103DD00070BDFDF789F8FAE72DE9F0410446806AE5
:103DE00000250E4630B12EB1216A8842216A06D9DB
:103DF000451A14E001212046FDF738FA0FE0884209
:103E00000DD1216A2046FDF7B1F8A06A042803D934
:103E100000F00301401AA062A56A00202062606DD4
:103E2000C0041AD4002D18D0A908B14217D300211C
:103E300011E0206AA269851C2368C71C1044555DE7
:103E4000D25D008865F31F4040EA02601864206A72
:103E5000001D2062491CB142EBD3BDE8F081B1B135
:103E6000002211E0206AA369861C2568C71C18443B
:103E70009E5DDB5D008866F31F4040EA03602864B6
:103E8000206A001D2062521C8A42EBD3E5E7002025
:103E900001460AE0266AA269236A8F07925DFE0E38
:103EA000B2405B1C23621043491CA942F2D3216833
:103EB0000864D2E7F0B50568ADF54B7D0B4605F516
:103EC000A060904202D105F2446505E005F5CC60A2
:103ED000904237D105F2A47583B369461846FFF7BF
:103EE0005BFC00282BD16FF0F0212C4602C4401C53
:103EF0000328FBD314481549206015486160154913
:103F0000A060A220E1606946421E801E01288C5CF0
:103F100001EB820201EB80070E5CB2F8A430D7F807
:103F2000A42004F00F0706F00F0467F31F2364F3C7
:103F30001F2242EA034245F8042DE5D800200DF582
:103F40004B7DF0BD0120FAE7D00FD10FD20FD30F78
:103F5000D40FD50FD60FD70FF0B50468ADF24C5D76
:103F600004F5F860904202D104F5FB6405E004F525
:103F7000FC60904217D104F5FF64E1B30D466A4638
:103F80000DF5A16628460DF244530DF20441FFF7EA
:103F90003BFC002808D10DF204436F4611E02918BC
:103FA000097C0C2903D301200DF24C5DF0BD06EB1A
:103FB000810C57F82020CCF80C201A5C521E401CB3
:103FC0007254DDF844158842E9D30C206FF0F023D9
:103FD00023600DF5A1616360421E801E8B5C01EBC6
:103FE000820201EB80070E5C9589FA6803F00F07E7
:103FF00006F00F0300E009E067F31F2563F31F22BB
:1040000042EA0542012844F8042DE5D80020CBE718
:1040100010B5044600F02AF822682046124902F53D
:10402000A062FFF747FF00281DD10F4920462268F4
:10403000B23102F5CC62FFF73DFF002813D10A49E7
:1040400020462268383902F5F862FFF785FF00281C
:1040500009D1054920462268BDE810401C3902F507
:10406000FC62FFF779BF10BD4C5A00082DE9F04300
:10407000904C1023056804F1B202A2F1EA09A2F102
:10408000CE0105F55B7500BF09EB03061B1F16F893
:1040900001CC16F8047C16F8028C16F8036C47EA7B
:1040A0000C674FEA084848EA06263743032B45F8D1
:1040B0000479E9D805680C2305F55E7509EB03065C
:1040C0001B1F96F80FC0377B96F80E80767B47EA69
:1040D0000C674FEA084848EA06263743032B45F8A1
:1040E0000479EBD80568102305F56275E6181B1FE7
:1040F00016F801CC16F8047C16F8028C16F8036C3E
:1041000047EA0C674FEA084848EA06263743032B7C
:1041100045F80479EAD80368A02594F8B1C040F2C4
:104120002C4794F8B060D3F82C846FF30F0848EA5A
:104130000C2C46EA0C06FE5003F5856366192D1F0C
:1041400096F80FC0377B96F80E80767B47EA0C67AF
:104150004FEA084848EA06263743032D43F8047916
:10416000ECD804680C234E780F78D4F82C54ADB2F8
:1041700045EA066545EA0745C4F82C54046891F8F9
:104180000FC004F23C468D7B37686FF30F0747EA98
:104190000C273D433560341FCE5CCD181B1F360401
:1041A00095F801C015F8027C15F8015C47EA0C6728
:1041B00046EA05252F43032B44F80479ECD803681D
:1041C00008244E7C0F7CD3F83C54ADB245EA06651A
:1041D00045EA0745C3F83C54036891F81BC003F552
:1041E00089668D7E37686FF30F0747EA0C273D43DA
:1041F0003560331F0D19241F95F811C0AE7B2F7C3D
:10420000ED7B46EA0C663F0447EA05252E43032C66
:1042100043F80469EED803680C2155781678D3F872
:104220004844A4B244EA056444EA0644C3F8484456
:104230000368D77B03F58B65947B2E686FF30F06BD
:1042400046EA072634432C602B1F565C5418091F7E
:104250003604677814F8025C14F8014C45EA0765E7
:1042600046EA04242543032943F80459EDD803689A
:10427000A021557C167CD3F85844A4B244EA0564C6
:1042800044EA0644C3F85844006800F59F60531898
:10429000091F1E7C5D7C9C7BDF7B360444EA056342
:1042A00046EA07242343032940F80439EFD8BDE840
:1042B000F08300004C5A00082DE9F041426A0446A0
:1042C000C06A002602EB810282422BD800221BE04A
:1042D0002068E369406C656A070A4FEA104C58553C
:1042E000636A4FEA106EE06918444770636AE069D8
:1042F000184480F802C0636AE069184480F803E05B
:10430000606A001D6062521C8A42E1D3616AE06A01
:10431000884205D1626A2046E169FCF7DBFD6662EE
:10432000BDE8F081616A8842FAD9626A0021801A88
:1043300082081BE02068E369406C656A070A4FEA5F
:10434000104C5855636A4FEA106EE0691844477084
:10435000636AE069184480F802C0636AE06918443F
:1043600080F803E0606A001D6062491C9142E1D35D
:10437000E16A606A8142CDD0636A00202268CF1A68
:10438000556C0BE0636A8107E2694FEAD16C25FA4C
:104390000CF1D154616A491C6162401CB842F1D3EE
:1043A000626A2046E169FCF795FDC7F10400666288
:1043B00009E0636AC600E26925FA06F1D154616A30
:1043C000491C6162401C0428F3D3A9E77CB51C4654
:1043D0000B460146DDE90760C2EB0212069D00288C
:1043E0004FEAC21000EB83000BD0074A00EB02003B
:1043F0002A46CDE90016C4F5F0732146FCF7ECF926
:104400007CBDA0F18040F3E700F807C00148FCF74D
:1044100085BF0000100200202DE9F04F8BB09A46B6
:104420001746894614210446DDF850B005A8DDF88A
:104430005C80DDE91565FBF797FF14484B463A466B
:104440002146FFF745FB124801680129FCD10F48BE
:1044500005A9FCF7A5FDB8F1000F13D00D4900BF69
:10446000DDE90620089B009680B29BB2CDE90130C1
:10447000CDE903525B4652464846FCF75BF90BB068
:10448000BDE8F08F4FF04041EAE70000E000002077
:104490000800002000F807C02DE9FE4F81460068A3
:1044A000882493468D888C2204EBCB178A46C368F8
:1044B0009421BE46C459C3F30B432B4404F4704407
:1044C0001F04019702EBCB1240F80E4001EBCB1317
:1044D000DAF800709C214FF0AC0C01EBCB1440F2E9
:1044E000077102910CEBCB11D9F800C09825002080
:1044F000CDF800C0A02605EBCB15DCF80CC006EB10
:10450000CB16CCF30B4C0CF1010C07EB0C08DDF8CF
:1045100000C0019F48EA07084CF80E80D9F80070E7
:10452000BAF80CC0B846FF68C7F30A0767444FEAF9
:10453000074E58F8027007F4704C48F802C0D9F8DA
:1045400000C0DAF80870DCF80C80C8F30A0808F13B
:104550000108B84448EA0E084CF80280D9F8002057
:10456000D75827F00707D750D9F80070DAF810208D
:10457000FA509AF831209AF818304FEA022C9AF83B
:104580003220120442EA0362D9F800301F59185150
:104590009AF8303043EA0C031343D9F80020135142
:1045A000D9F80020535923F0FF035351D9F80020C4
:1045B000DAF814305351D9F800209359029CA343E0
:1045C0009351D9F80030DAE9072422439A51D9F8F7
:1045D000002053585050D9F80020DAF824005050E9
:1045E000DAF81000C8B301283AD004283AD00228DB
:1045F00038D0032836D0072834D00120D9F800302D
:10460000B02505EBCB11B42284245D5802EBCB120C
:1046100005F0E0255D50DAE9003504EBCB14EB1A28
:10462000BAF8285043434543D9F80000DB1D43EA5C
:1046300005434350D9F8000081586FF30A018150B7
:10464000D9F80000DAF82C108150D9F8000001598F
:1046500041F001010151BDE8FE8FFFE70420CDE7E5
:104660000320CBE70220C9E7044810B5FDF762F844
:10467000BDE810400248FDF75DB800003801002099
:10468000A401002070B50368D0E903121143D9607A
:10469000D0E90514D0E90725436A21432A43058D53
:1046A0001143234AD0E90B46194383682143046828
:1046B000314302EB854211431943216141684FF0B8
:1046C0008044A14204D101680A6942F040420A6173
:1046D000026800215161426B002A08DA02685369BE
:1046E00043F480235361828E0368524200E00368E2
:1046F00092B21A62836B0268002B08DA536943F4A2
:10470000002353610268038F156A5B4200E0156A5B
:1047100045EA034313624268A24203D00368D2B25F
:104720009A6201E0026891620068416270BD000017
:104730000000FCFFF0B51E4D4FF000574FF01F0E6C
:10474000059C05EB045C056801F07F44BC426E6982
:1047500063F310066E6103685D69C5F3130545EAEE
:104760000C055D610368C3F804E00368DA6103685F
:10477000996113D094B101688B6A23F480338B6202
:1047800002F07F41B9420ED069B101688A6A22F411
:1047900000328A62C16D00684162F0BD01688B6AB7
:1047A00043F48033EBE701688A6A42F40032F0E7B1
:1047B0000000F0FF104801220E4B002110B50360ED
:1047C000C0E90112C160C0E91112C164016541650F
:1047D0008165C165FCF728F908B1FCF716F80648B1
:1047E0000121FCF7BDF8002803D0BDE81040FCF71C
:1047F0000CB810BD0010005244000020F0B587B086
:104800001C216846FBF7B0FD164800220823144D12
:1048100001264FF0400C1027C0E90052C0E90263A6
:104820004FF4C075076102210524C0E905C500F1F8
:104830001C0C8E02CF028CE8C40009258262CDE9EF
:104840000243CDE90015CDE9044106916946FEF722
:10485000EDFD002801D0FBF7D8FF07B0F0BD000048
:1048600040410052AC0000202DE9F04387B01421F4
:104870006846FBF779FD3E48016841F01001016090
:10488000016801F010010591016841F040010160EB
:10489000016801F040010591016841F002010160E9
:1048A000016801F002010591016841F00101016018
:1048B000016801F001010591016841F00801016002
:1048C000016801F008010591016841F004010160EF
:1048D000016801F004010591016841F480710160F3
:1048E000016801F480710591016841F08001016067
:1048F000016801F080010591016841F0200101602B
:10490000006801221B4F960300F0200031460590FD
:104910003846FCF771FADFF8608000220821404633
:10492000FCF76AFADFF85490012240214846FCF770
:1049300063FA00240096012569463846CDE9015402
:104940000394FCF743F908200090CDE9015469462F
:1049500040460394FCF73AF940200090CDE9015419
:10496000694648460394FCF731F907B0BDE8F08387
:10497000E044025800180258002002580000025873
:104980000749064810B508600846FCF79FFB002859
:1049900003D0BDE81040FBF738BF10BD0030005217
:1049A000E0000020F0B59BB034216846FBF7DCFC4A
:1049B00034210DA8FBF7D8FC33480024314D0321E6
:1049C00000F1180E40F20E262E2340F21F172A0483
:1049D000056044600F25846040F2162CC0E9034254
:1049E00040F22712026341618EE8EA1080F83440F9
:1049F00080F8354080F83640FCF7F4FC08B1FBF74E
:104A000004FF4FF4F075FF274FF48876CDE9004599
:104A100007AB069405216A06CDE90246CDE90447B5
:104A20004FF4806083E867008DF8304000228DF8F5
:104A30003140694614488DF83240FCF745FC08B116
:104A4000FBF7E3FECDE90D45CDE90F4614AB0F4A68
:104A5000CDE91147072113944FF4C06083E8670044
:104A60008DF8644001228DF865400DA906488DF847
:104A70006640FCF729FC002801D0FBF7C6FE1BB0FE
:104A8000F0BD0000001000501002002000F807C028
:104A9000094808B5016841F0010101600068002281
:104AA000114600F0010000907A20FCF797FFBDE866
:104AB00008407A20FCF784BFD44402580E480122F3
:104AC00070B500210B4EC0E900624FF44075C0E99B
:104AD0000551C161102301620830192480E81C00CF
:104AE0000838FDF771F8002803D0BDE87040FBF7E7
:104AF0008CBE70BD00500052B80200201848002142
:104B000010B5164C0C224FF4E1330460C0E90131BA
:104B1000C160C0E904128161C161016241628162C8
:104B2000FEF763FD08B1FBF770FE0D480021FEF7AC
:104B300036FD08B1FBF769FE09480021FEF709FDC3
:104B400008B1FBF762FE0648FEF7E3FC002803D03D
:104B5000BDE81040FBF759BE10BD0000004C0040FE
:104B600004030020FEE7FEE770472DE9F0434B6A9F
:104B70004FF040652BB1AA4203D004688B6A5B1EDC
:104B800023618B69002B68D00C6AB4B303688C680E
:104B9000DC61CC69FCB1D1E90B38D1F824C04E6B93
:104BA0008F8A43EA080346EA0C0633430E6A43EA57
:104BB0008743D1E9037C43EA0C0333438E693B43CB
:104BC0000F682343046833433B4365E0006849684A
:104BD0008161BDE8F083D1E90B364F6A4C6B8D8A59
:104BE00033433C430E6923430C6A43EA85438D6992
:104BF0003343096823432B4362E0FFE7CC69B4F1F8
:104C0000000918D0D1E90B484F6A4E6BB1F814C0B7
:104C100044EA08043E430F683443CE6844EA8C44B7
:104C2000344344EA09041C4303683C431443AA4246
:104C30005C61CBD1CDE7D1E90B464F6A4D6BB1F842
:104C400014C034433D4300682C43096844EA8C4453
:104C50001C430C4314434461BBE70B6AABB30368CA
:104C60008C68DC61CC69E4B1D1E90B38D1F824C09F
:104C70004E6B8F8A43EA080346EA0C0633430E6AFA
:104C800043EA8743D1E9037C43EA0C0333438E694B
:104C90003B432343046833431343AA42636195D1E2
:104CA00097E7D1E90B364F6A4C6B8D8A33433C430F
:104CB0000E6923430C6A43EA8543896933432343DE
:104CC00000680B431343436183E7FFE7CC6984B17A
:104CD000D1E90B384F6A4E6BB1F814C043EA0803B0
:104CE0003E433343CE6843EA8C4333432343046853
:104CF000D2E74C6A002C9DD0D1E90B368F8A4D6BE0
:104D00000168334325432B4343EA874010434861FE
:104D10005FE72DE9F041984616460F460446069D8A
:104D200008E0681C06D0FCF773F8A0EB0800A84266
:104D30000AD84DB120688068384000D00120B042C8
:104D4000EFD10020BDE8F081042084F84100606CC0
:104D500040F0010060640120F4E700002DE9F04715
:104D6000454D044689464FF0000A2868C043800735
:104D70000AD0414E283E306820F080603060FCF759
:104D800047F80746B04608E00120BDE8F08700BFBD
:104D9000FCF73EF8C01B022867D8D8F800000001D5
:104DA000F6D4206829684FF4FE0721F47C313E02D6
:104DB00041EA00302860207AA389B4F804C0400298
:104DC0002D4D2D495B1E227CACF1010C1035091DC7
:104DD000A0F5007080B2521ECCF3080C07EA034322
:104DE00040EA0C00184306EA026210432860086893
:104DF000626920F0C000104308600A68A06922F0D0
:104E0000200202430A60281D0A6822F010020A608C
:104E100002684FF6F873E4699A4342EAC4020260FA
:104E20000868B9F1000F40F010020A6011D008685C
:104E3000B9F1010F11D040F400100860D8F800005B
:104E4000444640F08060C8F80000FBF7E1FF0546EB
:104E50000DE0086840F40020EFE740F48010ECE734
:104E6000FBF7D6FF401B022801D903208DE72068FD
:104E70000001F5D5504688E7284402582DE9F0474F
:104E8000454D044689464FF0000A2868C043800714
:104E90000AD0414E283E306820F080503060FBF749
:104EA000B7FF0746B04608E00120BDE8F08700BF25
:104EB000FBF7AEFFC01B022867D8D8F800008000BF
:104EC000F6D4208829684FF4FE0721F07C713E0259
:104ED00041EA00502860207AA389B4F804C0400257
:104EE0002D4D2D495B1E227CACF1010C1835091D9E
:104EF000A0F5007080B2521ECCF3080C07EA034301
:104F000040EA0C00184306EA026210432860086871
:104F1000626920F44060104308600A68A06922F4C6
:104F2000007202430A60281D0A6822F480720A6037
:104F300002684FF6F873E4699A4342EAC4020260D9
:104F40000868B9F1000F40F480720A6011D0086857
:104F5000B9F1010F11D040F080700860D8F800005E
:104F6000444640F08050C8F80000FBF751FF05466A
:104F70000DE0086840F48000EFE740F40000ECE743
:104F8000FBF746FF401B022801D903208DE720686C
:104F90008000F5D5504688E7284402587047FBF753
:104FA0003DBF000070B59CB04C216846FBF7DCF9B2
:104FB000202113A8FBF7D8F90220FCF741FD244972
:104FC0000A68244822F001020A600968016821F495
:104FD000404141F4004101600168002401F4404176
:104FE0001B9101688904FCD51B4902200B68012232
:104FF00023F003060E6040232025039209AE0090A3
:105000000493F021042286E83100CDE90C100FA9A9
:105010000E9081E8150068461294FDF76FFF08B105
:1050200072B6FEE713AB3F20032183E8130008228A
:10503000189402211994CDE9162413A81A94FDF7A7
:105040004DFD002801D072B6FEE71CB070BD000017
:105050002C04005818480258284402582C48F0B52F
:105060002C4A016841F470010160106800F00F00E3
:10507000072804D2106820F00F00C01D10602649D8
:105080000020254C10340B68244D43F001030B60C5
:1050900020600B682B400B60136803F00F03072B95
:1050A00004D9136823F00F03DB1D13601A4C1C4A4C
:1050B00018341C4B261D371D2060174C1A4D283400
:1050C0003060261D3860371D23603B1D35601C1D78
:1050D0003A60251D2E1D1860331D22602860326045
:1050E00018600A680C4B114C22F4802260330A606D
:1050F000186020686FF30F00B0F1005F03D20C4915
:105100000120C1F8080143F2D2000A490860F0BD4D
:1051100088ED00E000200052004402587FEDF6EADE
:1051200080020101000202020000FF010010005C89
:10513000008000510040005230B5416EB9B10168A5
:105140000D4B03F108048A688968C2F34262490F73
:105150005D5C615C2D01B5FBF1F1A0F86A10995C12
:10516000A25C0901B1FBF2F1A0F8681030BD012189
:10517000A0F86A10F8E70000885C000890F8281092
:10518000C90706D00168C36A4A6822F400321A438C
:105190004A6090F82810890706D50168036B4A68B1
:1051A00022F480321A434A6090F82810490706D545
:1051B0000168436B4A6822F480221A434A6090F8DF
:1051C0002810090706D50168836B4A6822F400425B
:1051D0001A434A6090F82810C90606D50168C36BC7
:1051E0008A6822F480521A438A6090F8281089064F
:1051F00006D50168036C8A6822F400521A438A605B
:1052000090F82810490611D50168436C4A6822F4C9
:1052100080121A434A60416CB1F5801F06D10168C3
:10522000836C4A6822F4C0021A434A6090F828103E
:10523000090606D50168C26C486820F400201043B6
:1052400048607047F8B500260446C0F88C60FBF74C
:10525000DFFD054620686FF07E470068000708D52F
:1052600000222B464FF400112046009700F0F0F981
:1052700060B92068006840070AD500222B464FF429
:1052800080012046009700F0E3F908B10320F8BD43
:105290002020C4F88400C4F88800E666002084F862
:1052A0008060F8BD2DE9F04304468068D84E87B091
:1052B000D84B2168D4E90427D4F81CC010430A68ED
:1052C000002547EA0C073843324002430A60206851
:1052D000E268416821F44051114341602268A169AC
:1052E0009A4201D0206A01439768DFF82CC3CB4E65
:1052F000CB4807EA0C070F4397602168676ACA6AC0
:1053000022F00F023A43CA622268B2420ED100680C
:1053100000F03800182873D047DCB8B3082879D0DB
:1053200010286FD178E028287ED17BE0BD498A42E1
:1053300009D1006800F00700062875D2DFE800F008
:10534000546A6C6E7072B8498A4209D1006800F0E4
:105350000700062868D2DFE800F0475D5F616365FB
:10536000B2498A4209D1006800F0070006285BD2E2
:10537000DFE800F03A5052545658AD498A420BD1FA
:10538000006800F0070006284ED200E010E0DFE8D9
:1053900000F02B4143454749A6498A420AD100689B
:1053A00000F03800182839D0B7DD2028BBD13CE008
:1053B00001203AE0A0498A4209D1006800F00700C4
:1053C000062831D2DFE800F01026282A2C2E9B492F
:1053D0008A420BD1006800F00700062824D2DFE8DB
:1053E00000F003191B1D1F2100201EE09A421BD153
:1053F0008B48001D006800F00700062814D202E068
:105400000CE007E010E0DFE800F0030507090B0DF2
:1054100002200AE0042008E0082006E0102004E052
:10542000202002E0402000E080208549DFF814823F
:105430009A42854A4FF400434FEA21174FF0000685
:105440004ED110281AD006DC022809D004280BD02F
:1054500008287CD10DE020283ED0402877D13DE0BF
:10546000FCF77CFD014610E06846FCF789FD0199D8
:105470000BE003A8FCF726FE049906E010688006FE
:1054800005D51068C0F3C100C140002970D0606A22
:10549000676838F8102007EB4703B1FBF2F083424E
:1054A00055D8B0EB073F52D8002308461946FAF703
:1054B00011FF02467808130E120243EA0121101868
:1054C0003A4671410023FAF705FF604AA0F54071A2
:1054D00091423CD821688FE03946D8E71946D6E793
:1054E000D4F81CC04FF6EF799C4546D1082819D056
:1054F00005DC58B101280CD0042875D10DE0102826
:1055000015D0202835D040286ED134E0FDF736FC88
:1055100001E0FDF745FC014610E06846FCF730FD70
:1055200001990BE003A8FCF7CDFD049906E0106893
:10553000800604D51068C0F3C100C140C1B1636AE0
:10554000606838F81330B1FBF3F1490000E04BE03C
:1055500001EB5001B1FBF0F0A0F11001494543D837
:105560004FF6F0732168C0F342021840104343E045
:1055700043E03946E3E71946E1E7082819D005DC9E
:1055800058B101280CD004282ED10DE0102815D0D8
:1055900020282BD0402827D12AE0FDF7EFFB01E09F
:1055A000FDF7FEFB014610E06846FCF7E9FC0199B7
:1055B0000BE003A8FCF786FD049906E0106880065E
:1055C00004D51068C0F3C100C140B1B1636A60681E
:1055D00038F81330B1FBF3F101EB5001B1FBF0F0FF
:1055E000A0F11001494505D9012506E03946EDE74E
:1055F0001946EBE7216880B2C8600120A4F86A0070
:10560000A4F8680028462667666707B0BDE8F083FF
:10561000F369FFCF000C0058FFF4FF1100100140A8
:10562000544402580044004000480040004C0040F0
:10563000005000400014014000780040007C004011
:105640000090D003705C000800440258FFFC0F007B
:105650002DE9F0479A4617460E460446089D4FF03E
:1056600000094FF020084CE0681C4AD0FBF7D0FB43
:10567000A0EB0A00A8422AD84DB320680168490768
:105680003FD5C069C04300053BD421684FF400609A
:105690000862216851E8000F20F4D07041E8000250
:1056A000002AF6D12068083050E8001F21F00101DF
:1056B00040E80012002AF5D1C4F8848084F8809074
:1056C000C4F88880C4F88C800320BDE8F087206887
:1056D00050E8001F21F4D07140E80012002AF6D1F2
:1056E0002068083050E8001F21F0010140E8001256
:1056F000002AF5D1C4F8848084F88090C4F88880AA
:10570000E2E72068C06936EA000004D00020B84211
:10571000AAD00020D9E70120F9E7FEE7084A0123D3
:1057200010B50024C2E90031C2E9023404494FF641
:10573000FF72FDF7BDFE002800D0601E10BD000006
:10574000340000202DE9F0410C46096880464FF0F6
:10575000FF36FFF7E3FFF0B90127FBF759FB0546DA
:10576000FBF756FB401BB842FAD32168404600F0D5
:1057700037F880B9D4E90012404600F045F850B936
:105780002146404600F00AF828B9A168404600F0DA
:105790004DF800B900263046BDE8F0812DE9F04112
:1057A0000E4A0125D1E9033ED1E90547CE694FF004
:1057B000040C43EA0E03C2F800C03C4309682343CB
:1057C0003343D360C2E9011504494FF6FF72FDF778
:1057D0006FFE002800D0A81EBDE8F0813400002034
:1057E000084A002370B5012402251560D360C2E980
:1057F000011404494FF6FF72FDF75AFE002800D04D
:10580000A01E70BD34000020074B70B5082404C3EF
:1058100000254FF6FF7283E83200191FFDF748FE9E
:10582000002800D0681E70BD3400002010B5FDF7C0
:1058300027FE002801D04FF0FF3010BD014A024979
:1058400000F024B8B15800083000002009070028F3
:105850004FEA116104DB00F1E02080F8001470478A
:1058600000F00F0000F1E02080F8141D704702E006
:1058700008C8121F08C1002AFAD1704770470020DB
:1058800001E001C1121F002AFBD170472DE9F04150
:1058900016460F460446002503E03946B047641C0F
:1058A0006D1C20780028F8D12846BDE8F081000062
:1058B00013B5044801224FF47A736946FDF70CFFD3
:1058C00001201CBD0403002092B014210CA8FAF79B
:1058D0004BFD202104A8FAF747FD3020002407944F
:1058E00010234FF4F4525D01CDE9084003210493E5
:1058F000CDE90512CDE90A45FBF798FAFFF752FB0F
:10590000FEF7B2FFFEF77AFFFFF7D8F8FFF74AF885
:10591000FEF750FFFFF7BCF8FFF732F8FFF7EEF89D
:10592000FAF7EAFD324E4FF48045324F48B100227B
:1059300029463046FBF760FA002238464021FBF743
:105940005BFAFAF7ABFD48B1002229463046FBF777
:1059500053FA002238464021FBF74EFA264804A9A4
:10596000FFF7F0FE48B1002229463046FBF744FA23
:10597000002238464021FBF73FFA20A0FFF75EFFE8
:105980004FF487700294CDE900044207039401208C
:105990004FF4F0734FF01041FAF7A8FE194E30465D
:1059A000FEF7F4F802461849FF2001250023CDE94F
:1059B0000040CDE902453046FEF72EFD134A516AFC
:1059C0003C20CB074FF4C87101D0114A07E0526A5E
:1059D000920702D54FF0FF2201E04FF0FF328DE831
:1059E00025004623C8220020FEF7F0FCFEE7000059
:1059F0000018025800000258AC00002048656C6C8A
:105A00006F0D0A0000000790000010C00010005049
:105A10000000FFFF0001050101010101010000007C
:105A200000000000000102030405060708090A0B34
:105A3000000301010101010101010100000000005A
:105A4000000102030405060708090A0B000201030E
:105A500003020403050504040000017D01020300A4
:105A600004110512213141061351610722711432CC
:105A70008191A1082342B1C11552D1F02433627241
:105A800082090A161718191A25262728292A3435B3
:105A9000363738393A434445464748494A535455BE
:105AA000565758595A636465666768696A737475AE
:105AB000767778797A838485868788898A929394A1
:105AC00095969798999AA2A3A4A5A6A7A8A9AAB2C1
:105AD000B3B4B5B6B7B8B9BAC2C3C4C5C6C7C8C9E6
